{
  "contractName": "Marketplace",
  "abi": [
    {
      "constant": true,
      "inputs": [],
      "name": "storeOwnerCount",
      "outputs": [
        {
          "name": "",
          "type": "uint256"
        }
      ],
      "payable": false,
      "stateMutability": "view",
      "type": "function"
    },
    {
      "constant": true,
      "inputs": [
        {
          "name": "",
          "type": "address"
        },
        {
          "name": "",
          "type": "uint256"
        },
        {
          "name": "",
          "type": "uint256"
        }
      ],
      "name": "storeOwnerStoreFrontProducts",
      "outputs": [
        {
          "name": "productNumber",
          "type": "uint256"
        },
        {
          "name": "productName",
          "type": "bytes32"
        },
        {
          "name": "quantity",
          "type": "uint256"
        },
        {
          "name": "unitPrice",
          "type": "uint256"
        },
        {
          "name": "storeFrontNumber",
          "type": "uint256"
        },
        {
          "name": "storeOwner",
          "type": "address"
        }
      ],
      "payable": false,
      "stateMutability": "view",
      "type": "function"
    },
    {
      "constant": true,
      "inputs": [
        {
          "name": "",
          "type": "address"
        }
      ],
      "name": "isAdmin",
      "outputs": [
        {
          "name": "",
          "type": "bool"
        }
      ],
      "payable": false,
      "stateMutability": "view",
      "type": "function"
    },
    {
      "constant": true,
      "inputs": [],
      "name": "adminCount",
      "outputs": [
        {
          "name": "",
          "type": "uint256"
        }
      ],
      "payable": false,
      "stateMutability": "view",
      "type": "function"
    },
    {
      "constant": true,
      "inputs": [
        {
          "name": "",
          "type": "uint256"
        }
      ],
      "name": "storeFronts",
      "outputs": [
        {
          "name": "storeFrontNumber",
          "type": "uint256"
        },
        {
          "name": "storeFrontName",
          "type": "bytes32"
        },
        {
          "name": "storeOwner",
          "type": "address"
        }
      ],
      "payable": false,
      "stateMutability": "view",
      "type": "function"
    },
    {
      "constant": false,
      "inputs": [],
      "name": "kill",
      "outputs": [],
      "payable": false,
      "stateMutability": "nonpayable",
      "type": "function"
    },
    {
      "constant": true,
      "inputs": [],
      "name": "storeFrontCount",
      "outputs": [
        {
          "name": "",
          "type": "uint256"
        }
      ],
      "payable": false,
      "stateMutability": "view",
      "type": "function"
    },
    {
      "constant": true,
      "inputs": [
        {
          "name": "",
          "type": "address"
        }
      ],
      "name": "isStoreOwner",
      "outputs": [
        {
          "name": "",
          "type": "bool"
        }
      ],
      "payable": false,
      "stateMutability": "view",
      "type": "function"
    },
    {
      "constant": true,
      "inputs": [
        {
          "name": "",
          "type": "address"
        },
        {
          "name": "",
          "type": "uint256"
        }
      ],
      "name": "filteredStoreFronts",
      "outputs": [
        {
          "name": "storeFrontNumber",
          "type": "uint256"
        },
        {
          "name": "storeFrontName",
          "type": "bytes32"
        },
        {
          "name": "storeOwner",
          "type": "address"
        }
      ],
      "payable": false,
      "stateMutability": "view",
      "type": "function"
    },
    {
      "constant": true,
      "inputs": [
        {
          "name": "",
          "type": "uint256"
        }
      ],
      "name": "products",
      "outputs": [
        {
          "name": "productNumber",
          "type": "uint256"
        },
        {
          "name": "productName",
          "type": "bytes32"
        },
        {
          "name": "quantity",
          "type": "uint256"
        },
        {
          "name": "unitPrice",
          "type": "uint256"
        },
        {
          "name": "storeFrontNumber",
          "type": "uint256"
        },
        {
          "name": "storeOwner",
          "type": "address"
        }
      ],
      "payable": false,
      "stateMutability": "view",
      "type": "function"
    },
    {
      "constant": true,
      "inputs": [
        {
          "name": "",
          "type": "address"
        }
      ],
      "name": "isOnlineShopper",
      "outputs": [
        {
          "name": "",
          "type": "bool"
        }
      ],
      "payable": false,
      "stateMutability": "view",
      "type": "function"
    },
    {
      "constant": true,
      "inputs": [],
      "name": "owner",
      "outputs": [
        {
          "name": "",
          "type": "address"
        }
      ],
      "payable": false,
      "stateMutability": "view",
      "type": "function"
    },
    {
      "constant": true,
      "inputs": [
        {
          "name": "",
          "type": "uint256"
        },
        {
          "name": "",
          "type": "uint256"
        }
      ],
      "name": "storeFrontProducts",
      "outputs": [
        {
          "name": "productNumber",
          "type": "uint256"
        },
        {
          "name": "productName",
          "type": "bytes32"
        },
        {
          "name": "quantity",
          "type": "uint256"
        },
        {
          "name": "unitPrice",
          "type": "uint256"
        },
        {
          "name": "storeFrontNumber",
          "type": "uint256"
        },
        {
          "name": "storeOwner",
          "type": "address"
        }
      ],
      "payable": false,
      "stateMutability": "view",
      "type": "function"
    },
    {
      "constant": true,
      "inputs": [
        {
          "name": "",
          "type": "bytes32"
        }
      ],
      "name": "isExistingStoreFront",
      "outputs": [
        {
          "name": "",
          "type": "bool"
        }
      ],
      "payable": false,
      "stateMutability": "view",
      "type": "function"
    },
    {
      "constant": true,
      "inputs": [],
      "name": "productCount",
      "outputs": [
        {
          "name": "",
          "type": "uint256"
        }
      ],
      "payable": false,
      "stateMutability": "view",
      "type": "function"
    },
    {
      "constant": true,
      "inputs": [],
      "name": "onlineShopperCount",
      "outputs": [
        {
          "name": "",
          "type": "uint256"
        }
      ],
      "payable": false,
      "stateMutability": "view",
      "type": "function"
    },
    {
      "constant": false,
      "inputs": [
        {
          "name": "newOwner",
          "type": "address"
        }
      ],
      "name": "transferOwnership",
      "outputs": [],
      "payable": false,
      "stateMutability": "nonpayable",
      "type": "function"
    },
    {
      "inputs": [],
      "payable": false,
      "stateMutability": "nonpayable",
      "type": "constructor"
    },
    {
      "anonymous": false,
      "inputs": [
        {
          "indexed": true,
          "name": "admin",
          "type": "address"
        }
      ],
      "name": "AdminAdded",
      "type": "event"
    },
    {
      "anonymous": false,
      "inputs": [
        {
          "indexed": true,
          "name": "storeOwner",
          "type": "address"
        }
      ],
      "name": "StoreOwnerAdded",
      "type": "event"
    },
    {
      "anonymous": false,
      "inputs": [
        {
          "indexed": true,
          "name": "onlineShopper",
          "type": "address"
        }
      ],
      "name": "OnlineShopperAdded",
      "type": "event"
    },
    {
      "anonymous": false,
      "inputs": [
        {
          "indexed": true,
          "name": "storeFrontNumber",
          "type": "uint256"
        },
        {
          "indexed": true,
          "name": "storeFrontName",
          "type": "bytes32"
        },
        {
          "indexed": true,
          "name": "storeOwner",
          "type": "address"
        }
      ],
      "name": "StoreFrontAdded",
      "type": "event"
    },
    {
      "anonymous": false,
      "inputs": [
        {
          "indexed": true,
          "name": "productNumber",
          "type": "uint256"
        },
        {
          "indexed": false,
          "name": "productName",
          "type": "bytes32"
        },
        {
          "indexed": false,
          "name": "quantity",
          "type": "uint256"
        },
        {
          "indexed": false,
          "name": "unitPrice",
          "type": "uint256"
        },
        {
          "indexed": true,
          "name": "storeFrontNumber",
          "type": "uint256"
        },
        {
          "indexed": true,
          "name": "storeOwner",
          "type": "address"
        }
      ],
      "name": "StoreFrontProductAdded",
      "type": "event"
    },
    {
      "anonymous": false,
      "inputs": [
        {
          "indexed": false,
          "name": "emergencyStatus",
          "type": "bool"
        }
      ],
      "name": "LogEmergencyStatus",
      "type": "event"
    },
    {
      "constant": false,
      "inputs": [],
      "name": "toggleEmergency",
      "outputs": [
        {
          "name": "emergencyStatus",
          "type": "bool"
        }
      ],
      "payable": true,
      "stateMutability": "payable",
      "type": "function"
    },
    {
      "constant": true,
      "inputs": [],
      "name": "login",
      "outputs": [
        {
          "name": "",
          "type": "bytes32"
        }
      ],
      "payable": false,
      "stateMutability": "view",
      "type": "function"
    },
    {
      "constant": false,
      "inputs": [
        {
          "name": "name",
          "type": "bytes32"
        }
      ],
      "name": "signup",
      "outputs": [
        {
          "name": "",
          "type": "bytes32"
        }
      ],
      "payable": true,
      "stateMutability": "payable",
      "type": "function"
    },
    {
      "constant": false,
      "inputs": [
        {
          "name": "name",
          "type": "bytes32"
        }
      ],
      "name": "update",
      "outputs": [
        {
          "name": "",
          "type": "bytes32"
        }
      ],
      "payable": true,
      "stateMutability": "payable",
      "type": "function"
    },
    {
      "constant": false,
      "inputs": [
        {
          "name": "newAdminName",
          "type": "bytes32"
        },
        {
          "name": "newAdminAddress",
          "type": "address"
        }
      ],
      "name": "addAdmin",
      "outputs": [
        {
          "name": "userName",
          "type": "bytes32"
        }
      ],
      "payable": true,
      "stateMutability": "payable",
      "type": "function"
    },
    {
      "constant": false,
      "inputs": [
        {
          "name": "newStoreOwner",
          "type": "bytes32"
        },
        {
          "name": "newStoreOwnerAddress",
          "type": "address"
        }
      ],
      "name": "addStoreOwner",
      "outputs": [
        {
          "name": "userName",
          "type": "bytes32"
        }
      ],
      "payable": true,
      "stateMutability": "payable",
      "type": "function"
    },
    {
      "constant": false,
      "inputs": [
        {
          "name": "newStoreFrontName",
          "type": "bytes32"
        }
      ],
      "name": "addStoreFront",
      "outputs": [
        {
          "name": "storeFrontName",
          "type": "bytes32"
        }
      ],
      "payable": true,
      "stateMutability": "payable",
      "type": "function"
    },
    {
      "constant": true,
      "inputs": [],
      "name": "getMyStoreFronts",
      "outputs": [
        {
          "name": "storeFrontNames",
          "type": "bytes32[]"
        }
      ],
      "payable": false,
      "stateMutability": "view",
      "type": "function"
    },
    {
      "constant": true,
      "inputs": [],
      "name": "getAllStoreFronts",
      "outputs": [
        {
          "name": "storeFrontNames",
          "type": "bytes32[]"
        }
      ],
      "payable": false,
      "stateMutability": "view",
      "type": "function"
    },
    {
      "constant": false,
      "inputs": [
        {
          "name": "storeFrontNumber",
          "type": "uint256"
        },
        {
          "name": "productName",
          "type": "bytes32"
        },
        {
          "name": "quantity",
          "type": "uint256"
        },
        {
          "name": "unitPrice",
          "type": "uint256"
        }
      ],
      "name": "addStoreProducts",
      "outputs": [
        {
          "name": "storeProductName",
          "type": "bytes32"
        }
      ],
      "payable": true,
      "stateMutability": "payable",
      "type": "function"
    },
    {
      "constant": true,
      "inputs": [
        {
          "name": "storeFrontNumber",
          "type": "uint256"
        }
      ],
      "name": "getStoreFrontProducts",
      "outputs": [
        {
          "name": "storeFrontProductNames",
          "type": "bytes32[]"
        }
      ],
      "payable": false,
      "stateMutability": "view",
      "type": "function"
    }
  ],
  "bytecode": "0x608060405234801561001057600080fd5b50336000806101000a81548173ffffffffffffffffffffffffffffffffffffffff021916908373ffffffffffffffffffffffffffffffffffffffff16021790555033600160006101000a81548173ffffffffffffffffffffffffffffffffffffffff021916908373ffffffffffffffffffffffffffffffffffffffff1602179055507f41646d696e000000000000000000000000000000000000000000000000000000600360003373ffffffffffffffffffffffffffffffffffffffff1673ffffffffffffffffffffffffffffffffffffffff168152602001908152602001600020600001819055507f41646d696e000000000000000000000000000000000000000000000000000000600360003373ffffffffffffffffffffffffffffffffffffffff1673ffffffffffffffffffffffffffffffffffffffff168152602001908152602001600020600101819055506001600460003373ffffffffffffffffffffffffffffffffffffffff1673ffffffffffffffffffffffffffffffffffffffff16815260200190815260200160002060006101000a81548160ff02191690831515021790555060016005600082825401925050819055503373ffffffffffffffffffffffffffffffffffffffff167f44d6d25963f097ad14f29f06854a01f575648a1ef82f30e562ccd3889717e33960405160405180910390a26124598061021b6000396000f3fe60806040526004361061016a576000357c0100000000000000000000000000000000000000000000000000000000900463ffffffff16806304debb591461016f57806311a213721461019a57806313d4b1081461026257806324d7806c146102a45780632b7832b31461030d5780632d1d2744146103385780633191d4011461035a57806341c0e1b5146103e3578063433f6062146103fa57806344604634146104665780635c1397de146104c65780635e8edb1a146105085780635effd33c146105335780635fe244971461059c57806361188773146106455780636419bcdb146106b15780637acc0b201461071357806387a44a83146107b15780638b1472451461081a5780638da5cb5b1461085c5780639498b474146108b3578063ad4544481461095b578063b34e97e8146109ae578063d9f9f39a146109d9578063e0f6ef8714610a3b578063e9c576fb14610a66578063f2fde38b14610a91578063f71db91714610ae2575b600080fd5b34801561017b57600080fd5b50610184610b72565b6040518082815260200191505060405180910390f35b3480156101a657600080fd5b506101fd600480360360608110156101bd57600080fd5b81019080803573ffffffffffffffffffffffffffffffffffffffff1690602001909291908035906020019092919080359060200190929190505050610b78565b604051808781526020018681526020018581526020018481526020018381526020018273ffffffffffffffffffffffffffffffffffffffff1673ffffffffffffffffffffffffffffffffffffffff168152602001965050505050505060405180910390f35b61028e6004803603602081101561027857600080fd5b8101908080359060200190929190505050610bfd565b6040518082815260200191505060405180910390f35b3480156102b057600080fd5b506102f3600480360360208110156102c757600080fd5b81019080803573ffffffffffffffffffffffffffffffffffffffff169060200190929190505050610eff565b604051808215151515815260200191505060405180910390f35b34801561031957600080fd5b50610322610f1f565b6040518082815260200191505060405180910390f35b610340610f25565b604051808215151515815260200191505060405180910390f35b34801561036657600080fd5b506103936004803603602081101561037d57600080fd5b8101908080359060200190929190505050611008565b604051808481526020018381526020018273ffffffffffffffffffffffffffffffffffffffff1673ffffffffffffffffffffffffffffffffffffffff168152602001935050505060405180910390f35b3480156103ef57600080fd5b506103f8611052565b005b34801561040657600080fd5b5061040f6110e3565b6040518080602001828103825283818151815260200191508051906020019060200280838360005b83811015610452578082015181840152602081019050610437565b505050509050019250505060405180910390f35b6104b06004803603608081101561047c57600080fd5b81019080803590602001909291908035906020019092919080359060200190929190803590602001909291905050506111c3565b6040518082815260200191505060405180910390f35b6104f2600480360360208110156104dc57600080fd5b810190808035906020019092919050505061168b565b6040518082815260200191505060405180910390f35b34801561051457600080fd5b5061051d6118df565b6040518082815260200191505060405180910390f35b34801561053f57600080fd5b506105826004803603602081101561055657600080fd5b81019080803573ffffffffffffffffffffffffffffffffffffffff1690602001909291905050506118e5565b604051808215151515815260200191505060405180910390f35b3480156105a857600080fd5b506105f5600480360360408110156105bf57600080fd5b81019080803573ffffffffffffffffffffffffffffffffffffffff16906020019092919080359060200190929190505050611905565b604051808481526020018381526020018273ffffffffffffffffffffffffffffffffffffffff1673ffffffffffffffffffffffffffffffffffffffff168152602001935050505060405180910390f35b34801561065157600080fd5b5061065a61196b565b6040518080602001828103825283818151815260200191508051906020019060200280838360005b8381101561069d578082015181840152602081019050610682565b505050509050019250505060405180910390f35b6106fd600480360360408110156106c757600080fd5b8101908080359060200190929190803573ffffffffffffffffffffffffffffffffffffffff1690602001909291905050506119c3565b6040518082815260200191505060405180910390f35b34801561071f57600080fd5b5061074c6004803603602081101561073657600080fd5b8101908080359060200190929190505050611cae565b604051808781526020018681526020018581526020018481526020018381526020018273ffffffffffffffffffffffffffffffffffffffff1673ffffffffffffffffffffffffffffffffffffffff168152602001965050505050505060405180910390f35b3480156107bd57600080fd5b50610800600480360360208110156107d457600080fd5b81019080803573ffffffffffffffffffffffffffffffffffffffff169060200190929190505050611d0a565b604051808215151515815260200191505060405180910390f35b6108466004803603602081101561083057600080fd5b8101908080359060200190929190505050611d2a565b6040518082815260200191505060405180910390f35b34801561086857600080fd5b50610871611e7e565b604051808273ffffffffffffffffffffffffffffffffffffffff1673ffffffffffffffffffffffffffffffffffffffff16815260200191505060405180910390f35b3480156108bf57600080fd5b506108f6600480360360408110156108d657600080fd5b810190808035906020019092919080359060200190929190505050611ea3565b604051808781526020018681526020018581526020018481526020018381526020018273ffffffffffffffffffffffffffffffffffffffff1673ffffffffffffffffffffffffffffffffffffffff168152602001965050505050505060405180910390f35b34801561096757600080fd5b506109946004803603602081101561097e57600080fd5b8101908080359060200190929190505050611f1b565b604051808215151515815260200191505060405180910390f35b3480156109ba57600080fd5b506109c3611f3b565b6040518082815260200191505060405180910390f35b610a25600480360360408110156109ef57600080fd5b8101908080359060200190929190803573ffffffffffffffffffffffffffffffffffffffff169060200190929190505050611fdc565b6040518082815260200191505060405180910390f35b348015610a4757600080fd5b50610a506122c7565b6040518082815260200191505060405180910390f35b348015610a7257600080fd5b50610a7b6122cd565b6040518082815260200191505060405180910390f35b348015610a9d57600080fd5b50610ae060048036036020811015610ab457600080fd5b81019080803573ffffffffffffffffffffffffffffffffffffffff1690602001909291905050506122d3565b005b348015610aee57600080fd5b50610b1b60048036036020811015610b0557600080fd5b81019080803590602001909291905050506123a3565b6040518080602001828103825283818151815260200191508051906020019060200280838360005b83811015610b5e578082015181840152602081019050610b43565b505050509050019250505060405180910390f35b60075481565b601060205282600052604060002060205281600052604060002081815481101515610b9f57fe5b906000526020600020906006020160009250925050508060000154908060010154908060020154908060030154908060040154908060050160009054906101000a900473ffffffffffffffffffffffffffffffffffffffff16905086565b60008160006001028114151515610c1357600080fd5b82600c600082815260200190815260200160002060009054906101000a900460ff16151515610c4157600080fd5b600160149054906101000a900460ff16151515610c5d57600080fd5b600660003373ffffffffffffffffffffffffffffffffffffffff1673ffffffffffffffffffffffffffffffffffffffff16815260200190815260200160002060009054906101000a900460ff161515610cb557600080fd5b600d54600a6000600d5481526020019081526020016000206000018190555083600a6000600d5481526020019081526020016000206001018190555033600a6000600d54815260200190815260200160002060020160006101000a81548173ffffffffffffffffffffffffffffffffffffffff021916908373ffffffffffffffffffffffffffffffffffffffff160217905550600b60003373ffffffffffffffffffffffffffffffffffffffff1673ffffffffffffffffffffffffffffffffffffffff168152602001908152602001600020600a6000600d5481526020019081526020016000209080600181540180825580915050906001820390600052602060002090600302016000909192909190915060008201548160000155600182015481600101556002820160009054906101000a900473ffffffffffffffffffffffffffffffffffffffff168160020160006101000a81548173ffffffffffffffffffffffffffffffffffffffff021916908373ffffffffffffffffffffffffffffffffffffffff160217905550505050600e8490806001815401808255809150509060018203906000526020600020016000909192909190915055506001600c600086815260200190815260200160002060006101000a81548160ff0219169083151502179055503373ffffffffffffffffffffffffffffffffffffffff1684600d547fc2e2b4525d791a06604926ea110d994f238617f756c62e7dc4aa0b75e423be1260405160405180910390a46001600d600082825401925050819055508392505050919050565b60046020528060005260406000206000915054906101000a900460ff1681565b60055481565b6000600460003373ffffffffffffffffffffffffffffffffffffffff1673ffffffffffffffffffffffffffffffffffffffff16815260200190815260200160002060009054906101000a900460ff161515610f7f57600080fd5b600160149054906101000a900460ff1615600160146101000a81548160ff0219169083151502179055507f10bff25ca720e2d6d246ee4604a58147ecb89867daa9aea307bdc19574b328ed600160149054906101000a900460ff16604051808215151515815260200191505060405180910390a1600160149054906101000a900460ff16905090565b600a6020528060005260406000206000915090508060000154908060010154908060020160009054906101000a900473ffffffffffffffffffffffffffffffffffffffff16905083565b6000809054906101000a900473ffffffffffffffffffffffffffffffffffffffff1673ffffffffffffffffffffffffffffffffffffffff163373ffffffffffffffffffffffffffffffffffffffff1614156110e1576000809054906101000a900473ffffffffffffffffffffffffffffffffffffffff1673ffffffffffffffffffffffffffffffffffffffff16ff5b565b606060008090505b600b60003373ffffffffffffffffffffffffffffffffffffffff1673ffffffffffffffffffffffffffffffffffffffff168152602001908152602001600020805490508110156111bc57600b60003373ffffffffffffffffffffffffffffffffffffffff1673ffffffffffffffffffffffffffffffffffffffff1681526020019081526020016000208181548110151561118157fe5b90600052602060002090600302016001015482828151811015156111a157fe5b906020019060200201818152505080806001019150506110eb565b5080905090565b600083600060010281141515156111d957600080fd5b8360008110151515156111eb57600080fd5b8360008110151515156111fd57600080fd5b600160149054906101000a900460ff1615151561121957600080fd5b3373ffffffffffffffffffffffffffffffffffffffff16600a60008a815260200190815260200160002060020160009054906101000a900473ffffffffffffffffffffffffffffffffffffffff1673ffffffffffffffffffffffffffffffffffffffff16141515611318576040517f08c379a000000000000000000000000000000000000000000000000000000000815260040180806020018281038252603d8152602001807f4f6e6c792073746f72652066726f6e74206f776e6572732063616e206164642081526020017f70726f647563747320746f2074686569722073746f72652066726f6e7400000081525060400191505060405180910390fd5b60c06040519081016040528060125481526020018881526020018781526020018681526020018981526020013373ffffffffffffffffffffffffffffffffffffffff16815250600f60006012548152602001908152602001600020600082015181600001556020820151816001015560408201518160020155606082015181600301556080820151816004015560a08201518160050160006101000a81548173ffffffffffffffffffffffffffffffffffffffff021916908373ffffffffffffffffffffffffffffffffffffffff160217905550905050601060003373ffffffffffffffffffffffffffffffffffffffff1673ffffffffffffffffffffffffffffffffffffffff1681526020019081526020016000206000898152602001908152602001600020600f600060125481526020019081526020016000209080600181540180825580915050906001820390600052602060002090600602016000909192909190915060008201548160000155600182015481600101556002820154816002015560038201548160030155600482015481600401556005820160009054906101000a900473ffffffffffffffffffffffffffffffffffffffff168160050160006101000a81548173ffffffffffffffffffffffffffffffffffffffff021916908373ffffffffffffffffffffffffffffffffffffffff16021790555050505060116000898152602001908152602001600020600f600060125481526020019081526020016000209080600181540180825580915050906001820390600052602060002090600602016000909192909190915060008201548160000155600182015481600101556002820154816002015560038201548160030155600482015481600401556005820160009054906101000a900473ffffffffffffffffffffffffffffffffffffffff168160050160006101000a81548173ffffffffffffffffffffffffffffffffffffffff021916908373ffffffffffffffffffffffffffffffffffffffff1602179055505050503373ffffffffffffffffffffffffffffffffffffffff16886012547f6c49523c04c657fdbdfa4d93e8795f706a225bf248fe96c7c2ae0219598e0aca8a8a8a60405180848152602001838152602001828152602001935050505060405180910390a46001601260008282540192505081905550869350505050949350505050565b600081600060010281141515156116a157600080fd5b6000600102600360003373ffffffffffffffffffffffffffffffffffffffff1673ffffffffffffffffffffffffffffffffffffffff1681526020019081526020016000206000015414156118935782600360003373ffffffffffffffffffffffffffffffffffffffff1673ffffffffffffffffffffffffffffffffffffffff168152602001908152602001600020600001819055507f4f6e6c696e6553686f7070657200000000000000000000000000000000000000600360003373ffffffffffffffffffffffffffffffffffffffff1673ffffffffffffffffffffffffffffffffffffffff168152602001908152602001600020600101819055506001600860003373ffffffffffffffffffffffffffffffffffffffff1673ffffffffffffffffffffffffffffffffffffffff16815260200190815260200160002060006101000a81548160ff02191690831515021790555060016009600082825401925050819055503373ffffffffffffffffffffffffffffffffffffffff167fd8219d79850df1955a63dcc692a2fefbfa9634bb614ad6b56e67bc7b51f51fd560405160405180910390a2600360003373ffffffffffffffffffffffffffffffffffffffff1673ffffffffffffffffffffffffffffffffffffffff1681526020019081526020016000206000015491506118d9565b600360003373ffffffffffffffffffffffffffffffffffffffff1673ffffffffffffffffffffffffffffffffffffffff1681526020019081526020016000206000015491505b50919050565b600d5481565b60066020528060005260406000206000915054906101000a900460ff1681565b600b6020528160005260406000208181548110151561192057fe5b9060005260206000209060030201600091509150508060000154908060010154908060020160009054906101000a900473ffffffffffffffffffffffffffffffffffffffff16905083565b6060600e8054806020026020016040519081016040528092919081815260200182805480156119b957602002820191906000526020600020905b8154815260200190600101908083116119a5575b5050505050905090565b600082600060010281141515156119d957600080fd5b82600073ffffffffffffffffffffffffffffffffffffffff168173ffffffffffffffffffffffffffffffffffffffff1614151515611a1657600080fd5b6000600102600360008673ffffffffffffffffffffffffffffffffffffffff1673ffffffffffffffffffffffffffffffffffffffff168152602001908152602001600020600001541415611c6057600460003373ffffffffffffffffffffffffffffffffffffffff1673ffffffffffffffffffffffffffffffffffffffff16815260200190815260200160002060009054906101000a900460ff161515611abc57600080fd5b84600360008673ffffffffffffffffffffffffffffffffffffffff1673ffffffffffffffffffffffffffffffffffffffff168152602001908152602001600020600001819055507f41646d696e000000000000000000000000000000000000000000000000000000600360008673ffffffffffffffffffffffffffffffffffffffff1673ffffffffffffffffffffffffffffffffffffffff168152602001908152602001600020600101819055506001600460008673ffffffffffffffffffffffffffffffffffffffff1673ffffffffffffffffffffffffffffffffffffffff16815260200190815260200160002060006101000a81548160ff02191690831515021790555060016005600082825401925050819055508373ffffffffffffffffffffffffffffffffffffffff167f44d6d25963f097ad14f29f06854a01f575648a1ef82f30e562ccd3889717e33960405160405180910390a2600360008573ffffffffffffffffffffffffffffffffffffffff1673ffffffffffffffffffffffffffffffffffffffff168152602001908152602001600020600001549250611ca6565b600360008573ffffffffffffffffffffffffffffffffffffffff1673ffffffffffffffffffffffffffffffffffffffff1681526020019081526020016000206000015492505b505092915050565b600f6020528060005260406000206000915090508060000154908060010154908060020154908060030154908060040154908060050160009054906101000a900473ffffffffffffffffffffffffffffffffffffffff16905086565b60086020528060005260406000206000915054906101000a900460ff1681565b60008160006001028114151515611d4057600080fd5b336000600102600360008373ffffffffffffffffffffffffffffffffffffffff1673ffffffffffffffffffffffffffffffffffffffff1681526020019081526020016000206000015414151515611d9657600080fd5b6000600102600360003373ffffffffffffffffffffffffffffffffffffffff1673ffffffffffffffffffffffffffffffffffffffff16815260200190815260200160002060000154141515611e765783600360003373ffffffffffffffffffffffffffffffffffffffff1673ffffffffffffffffffffffffffffffffffffffff16815260200190815260200160002060000181905550600360003373ffffffffffffffffffffffffffffffffffffffff1673ffffffffffffffffffffffffffffffffffffffff168152602001908152602001600020600001549250611e77565b5b5050919050565b6000809054906101000a900473ffffffffffffffffffffffffffffffffffffffff1681565b601160205281600052604060002081815481101515611ebe57fe5b9060005260206000209060060201600091509150508060000154908060010154908060020154908060030154908060040154908060050160009054906101000a900473ffffffffffffffffffffffffffffffffffffffff16905086565b600c6020528060005260406000206000915054906101000a900460ff1681565b6000336000600102600360008373ffffffffffffffffffffffffffffffffffffffff1673ffffffffffffffffffffffffffffffffffffffff1681526020019081526020016000206000015414151515611f9357600080fd5b600360003373ffffffffffffffffffffffffffffffffffffffff1673ffffffffffffffffffffffffffffffffffffffff1681526020019081526020016000206000015491505090565b60008260006001028114151515611ff257600080fd5b82600073ffffffffffffffffffffffffffffffffffffffff168173ffffffffffffffffffffffffffffffffffffffff161415151561202f57600080fd5b6000600102600360008673ffffffffffffffffffffffffffffffffffffffff1673ffffffffffffffffffffffffffffffffffffffff16815260200190815260200160002060000154141561227957600460003373ffffffffffffffffffffffffffffffffffffffff1673ffffffffffffffffffffffffffffffffffffffff16815260200190815260200160002060009054906101000a900460ff1615156120d557600080fd5b84600360008673ffffffffffffffffffffffffffffffffffffffff1673ffffffffffffffffffffffffffffffffffffffff168152602001908152602001600020600001819055507f53746f72654f776e657200000000000000000000000000000000000000000000600360008673ffffffffffffffffffffffffffffffffffffffff1673ffffffffffffffffffffffffffffffffffffffff168152602001908152602001600020600101819055506001600660008673ffffffffffffffffffffffffffffffffffffffff1673ffffffffffffffffffffffffffffffffffffffff16815260200190815260200160002060006101000a81548160ff02191690831515021790555060016007600082825401925050819055508373ffffffffffffffffffffffffffffffffffffffff167fe095b54135d91dfdb849d8f2a1232ed69da67f78cfd33a34a834084d8d037e9a60405160405180910390a2600360008573ffffffffffffffffffffffffffffffffffffffff1673ffffffffffffffffffffffffffffffffffffffff1681526020019081526020016000206000015492506122bf565b600360008573ffffffffffffffffffffffffffffffffffffffff1673ffffffffffffffffffffffffffffffffffffffff1681526020019081526020016000206000015492505b505092915050565b60125481565b60095481565b6000809054906101000a900473ffffffffffffffffffffffffffffffffffffffff1673ffffffffffffffffffffffffffffffffffffffff163373ffffffffffffffffffffffffffffffffffffffff1614156123a057600073ffffffffffffffffffffffffffffffffffffffff168173ffffffffffffffffffffffffffffffffffffffff1614151561239f57806000806101000a81548173ffffffffffffffffffffffffffffffffffffffff021916908373ffffffffffffffffffffffffffffffffffffffff1602179055505b5b50565b606060008090505b60116000848152602001908152602001600020805490508110156124245760116000848152602001908152602001600020818154811015156123e957fe5b906000526020600020906006020160010154828281518110151561240957fe5b906020019060200201818152505080806001019150506123ab565b5080905091905056fea165627a7a72305820ed2204f056ff73292cd7317ac478112231185057eb079b933049449c7c8a31700029",
  "source": "pragma solidity ^0.5.0;\n\n/// @author Praveen B Shenoy\n/// @title Marketplace - setting up an online marketplace\n\nimport './zeppelin/lifecycle/Killable.sol';\n\ncontract Marketplace is Killable {\n\n   /* set owner */\n   address private owner;\n\n   /* variable to handle emergencies, and impose circuit breakers */\n   bool private emergency;\n\n   /* stores user id temporarily */\n   uint private id;\n\n   /* capture all users */\n   mapping (address => User) private users;\n\n   /* capture group of admins */\n   mapping (address => bool) public isAdmin; // allow contracts to see if user is an Admin\n   uint public adminCount;  // stores a running count of the admins\n\n   /* capture store owners */\n   mapping (address => bool) public isStoreOwner; // allow contracts to see if user is a store owner\n   uint public storeOwnerCount; // stores a running count of store owners\n   //mapping (address => uint) public storeOwnerId;\n\n   /* capture online shoppers */\n   mapping (address => bool) public isOnlineShopper; // allow contracts to see if user is an online shoppers\n   uint public onlineShopperCount; // stores a running count of online shoppers\n   //mapping (address => User) private onlineShoppers;\n\n   /* capture store fronts */\n   mapping (uint => StoreFront) public storeFronts; // all store fronts\n   mapping (address => StoreFront[]) public filteredStoreFronts; // all store fronts for a particular store owner\n   mapping (bytes32 => bool) public isExistingStoreFront; // allow contracts to check if store front name is unique\n   uint public storeFrontCount; // stores a running count of the store fronts created\n   bytes32[] allStoreFronts; // an array of all store front names\n   //mapping (uint => StoreFront[]) public allStoreFronts;\n   //mapping (address => uint) public storeFrontId;\n\n   /* capture store products */\n   mapping (uint => Product) public products; // all products\n   mapping (address => mapping (uint => Product[])) public storeOwnerStoreFrontProducts; // mapping of owner to store front to products\n   mapping (uint => Product[]) public storeFrontProducts; //mapping of store front to products\n   uint public productCount; // running count of all products\n\n   /* structure pertaining to a User */\n   struct User {\n      bytes32 name; // user name\n      bytes32 userRole; // user role can be admin, store owner or online shopper\n   }\n\n   /* structure pertaining to a store front */\n   struct StoreFront {\n      uint storeFrontNumber; // a unique number assigned to each store front\n      bytes32 storeFrontName; // store front name\n      address storeOwner; // address of the store owner\n   }\n\n   /* structure pertaining to a product */\n   struct Product {\n      uint productNumber;  // a unique number assigned to each product\n      bytes32 productName; // product name\n      uint quantity;       // product quantity currnetly available in the store\n      uint unitPrice;      // unit price (selling price) of the product\n      uint storeFrontNumber; // store front number of the store where the product belongs\n      address storeOwner;  // address of the store owner\n   }\n\n   /* events */\n   event AdminAdded(address indexed admin);  // emitted each time a new admin is added\n   event StoreOwnerAdded(address indexed storeOwner); // emitted each time a new store owner is added\n   event OnlineShopperAdded(address indexed onlineShopper); // emitted each time a new online shopper signs-up\n   event StoreFrontAdded(uint indexed storeFrontNumber,\n                         bytes32 indexed storeFrontName,\n                         address indexed storeOwner); // emitted each time a new store front is created\n   event StoreFrontProductAdded(uint indexed productNumber,\n                                bytes32 productName,\n                                uint quantity,\n                                uint unitPrice,\n                                uint indexed storeFrontNumber,\n                                address indexed storeOwner); // emitted each time a new product is added\n   event LogEmergencyStatus(bool emergencyStatus); // emitted each time emergency is set or released for circuit breaker\n\n   /* modifiers */\n\n   /* check there is no emergency currently */\n   modifier noEmergency() {\n      require(!(emergency));\n      _;\n   }\n\n   /* check input name is not blank */\n   modifier onlyValidName(bytes32 name) {\n      require(!(name == 0x0));\n      _;\n   }\n\n   /* check input number is greater than or equal to 0 */\n   modifier onlyValidNumber(uint number) {\n      require(!(number >= 0));\n      _;\n   }\n\n   /* check if user already exists during login */\n   modifier onlyExistingUser(address _entrant) {\n      require(!(users[_entrant].name == 0x0));\n      _;\n   }\n\n   /* check input address is not blank */\n   modifier onlyValidAddress(address inputAddress) {\n      require(inputAddress != address(0x0));\n      _;\n   }\n\n   /* check new store front name is not a duplicate */\n   modifier onlyValidStoreFront(bytes32 name) {\n      require(!(isExistingStoreFront[name]));\n      _;\n   }\n\n   /* set the owner to the creator of this contract\n      owner will also be the default admin */\n   constructor() public {\n      owner = msg.sender;\n      users[msg.sender].name = \"Admin\";\n      users[msg.sender].userRole = \"Admin\";\n      isAdmin[msg.sender] = true;\n      adminCount += 1;\n      emit AdminAdded(msg.sender);\n   }\n\n   /// @notice function to set or release an emergency by setting the emergency flag\n   ///         setting the emergency flag stop key business functions performed by store owners or online onlineShoppers\n   ///         like adding stores fronts, or making purchases\n   ///         Only admins can set or release the emergency flag\n   ///@return  emergency flag will be returned with the right status\n   function toggleEmergency()\n   public\n   payable\n   returns (bool emergencyStatus) {\n      require(isAdmin[msg.sender]);\n      emergency = !emergency;\n      emit LogEmergencyStatus(emergency);\n      return emergency;\n   }\n\n   /// @notice check is user exists and return user role\n   /// @return the name of the person logged in\n   function login() view\n   public\n   onlyExistingUser(msg.sender)\n   returns (bytes32) {\n      return (users[msg.sender].name);\n   }\n\n   /// @notice sign up as online shopper only:\n   ///         check if user exists, if yes, return user name;\n   ///         if no, check if name was sent, if yes, create and return user\n   /// @param  name of the person signing up\n   /// @return the name of the person signed up\n   function signup(bytes32 name)\n   public\n   payable\n   onlyValidName(name)\n   returns (bytes32) {\n      if (users[msg.sender].name == 0x0) {\n         users[msg.sender].name = name;\n         users[msg.sender].userRole = \"OnlineShopper\";\n         isOnlineShopper[msg.sender] = true;\n         onlineShopperCount += 1;\n         emit OnlineShopperAdded(msg.sender);\n         return (users[msg.sender].name);\n      }\n      return (users[msg.sender].name);\n   }\n\n   /// @notice function to update user name only\n   ///         requires new user name is not blank\n   ///         requester to be an existing user and can only change his/her name\n   /// @param  name to be updated as\n   /// @return updated name of the user\n   function update(bytes32 name)\n   public\n   payable\n   onlyValidName(name)\n   onlyExistingUser(msg.sender)\n   returns (bytes32) {\n      if (users[msg.sender].name != 0x0) {\n         users[msg.sender].name = name;\n         return (users[msg.sender].name);\n      }\n   }\n\n   /// @notice function to set up a new admin\n   ///         requires new admin name and address are not blank\n   ///         requester needs to be an existing admin\n   /// @param  newAdminName newAdminAddress\n   /// @return userName of the newly added admin\n   function addAdmin(bytes32 newAdminName, address newAdminAddress)\n   public\n   payable\n   onlyValidName(newAdminName)\n   onlyValidAddress(newAdminAddress)\n   returns(bytes32 userName) {\n      if (users[newAdminAddress].name == 0x0) {\n         /* only admins should be able to add other admins */\n         require(isAdmin[msg.sender]);\n         users[newAdminAddress].name = newAdminName;\n         users[newAdminAddress].userRole = \"Admin\";\n         isAdmin[newAdminAddress] = true;\n         adminCount += 1;\n         emit AdminAdded(newAdminAddress);\n         return (users[newAdminAddress].name);\n      }\n      return (users[newAdminAddress].name);\n   }\n\n   /// @notice function to set up a new store owner\n   ///         requires new store owner name and address are not blank\n   ///         requester needs to be an existing admin\n   /// @param  newStoreOwner newStoreOwnerAddress\n   /// @return userName of the newly added store owner\n   function addStoreOwner(bytes32 newStoreOwner, address newStoreOwnerAddress)\n   public\n   payable\n   onlyValidName(newStoreOwner)\n   onlyValidAddress (newStoreOwnerAddress)\n   returns(bytes32 userName) {\n      if (users[newStoreOwnerAddress].name == 0x0) {\n         /* only admins should be able to add store owners */\n         require(isAdmin[msg.sender]);\n         users[newStoreOwnerAddress].name = newStoreOwner;\n         users[newStoreOwnerAddress].userRole = \"StoreOwner\";\n         isStoreOwner[newStoreOwnerAddress] = true;\n         //storeOwnerId[newStoreOwnerAddress] = storeOwnerCount;\n         storeOwnerCount += 1;\n         emit StoreOwnerAdded(newStoreOwnerAddress);\n         return (users[newStoreOwnerAddress].name);\n      }\n      return users[newStoreOwnerAddress].name;\n   }\n\n   /// @notice function to set up a new store front\n   ///         requires new store front name is not blank\n   ///         requester needs to be an existing store owner\n   /// @param  newStoreFrontName for the store front to be added\n   /// @return newStoreFrontName of the newly added store front\n   function addStoreFront(bytes32 newStoreFrontName)\n   public\n   payable\n   onlyValidName(newStoreFrontName)\n   onlyValidStoreFront(newStoreFrontName)\n   noEmergency()\n   returns(bytes32 storeFrontName) {\n      require(isStoreOwner[msg.sender]);\n      storeFronts[storeFrontCount].storeFrontNumber = storeFrontCount;\n      storeFronts[storeFrontCount].storeFrontName = newStoreFrontName;\n      storeFronts[storeFrontCount].storeOwner = msg.sender;\n      filteredStoreFronts[msg.sender].push(storeFronts[storeFrontCount]);\n      allStoreFronts.push(newStoreFrontName);\n      isExistingStoreFront[newStoreFrontName] = true;\n      emit StoreFrontAdded(storeFrontCount, newStoreFrontName, msg.sender);\n      storeFrontCount += 1;\n      return newStoreFrontName;\n   }\n\n   /// @notice function to retrieve store front names of the requester\n   /// @return storeFrontNames belonging to the requester\n   function getMyStoreFronts()\n   public\n   view\n   returns (bytes32[] memory storeFrontNames) {\n      for (uint i=0; i < filteredStoreFronts[msg.sender].length; i++) {\n         storeFrontNames[i] = filteredStoreFronts[msg.sender][i].storeFrontName;\n      }\n      return storeFrontNames;\n   }\n\n   /// @notice function to retrieve all available store fronts\n   /// @return allStoreFrontNames\n   function getAllStoreFronts()\n   public\n   view\n   returns (bytes32[] memory storeFrontNames) {\n      return allStoreFronts;\n   }\n\n   /// @notice function to add a product to a store front\n   ///         requires new product name is not blank; quantity and unit price >= 0\n   ///         requester needs to be owner of the store front where the product is being added\n   /// @param  storeFrontNumber productName quantity unitPrice\n   /// @return storeProductName of the newly added product\n   function addStoreProducts(uint storeFrontNumber, bytes32 productName, uint quantity, uint unitPrice)\n   public\n   payable\n   onlyValidName(productName)\n   onlyValidNumber(quantity)\n   onlyValidNumber(unitPrice)\n   noEmergency()\n   returns (bytes32 storeProductName) {\n      require(storeFronts[storeFrontNumber].storeOwner == msg.sender,\"Only store front owners can add products to their store front\");\n      products[productCount] = Product({\n         productNumber: productCount,\n         productName: productName,\n         quantity: quantity,\n         unitPrice: unitPrice,\n         storeFrontNumber: storeFrontNumber,\n         storeOwner: msg.sender\n      });\n      storeOwnerStoreFrontProducts[msg.sender][storeFrontNumber].push(products[productCount]);\n      storeFrontProducts[storeFrontNumber].push(products[productCount]);\n      emit StoreFrontProductAdded(productCount, productName, quantity, unitPrice, storeFrontNumber, msg.sender);\n      productCount += 1;\n      return productName;\n   }\n\n   /// @notice function to retrieve all products in a store front\n   /// @param  storeFrontNumber for which products to be retrieved\n   /// @return storeFrontProductNames of all products in the store front\n   function getStoreFrontProducts(uint storeFrontNumber)\n   public\n   view\n   returns (bytes32[] memory storeFrontProductNames) {\n      for (uint i=0; i < storeFrontProducts[storeFrontNumber].length; i++) {\n         storeFrontProductNames[i] = storeFrontProducts[storeFrontNumber][i].productName;\n      }\n      return storeFrontProductNames;\n   }\n}\n",
  "sourcePath": "/home/praveens/online-marketplace-final/contracts/Marketplace.sol",
  "compiler": {
    "name": "solc",
    "version": "0.5.0+commit.1d4f565a.Emscripten.clang"
  },
  "schemaVersion": "3.0.1",
  "updatedAt": "2019-01-27T23:47:59.919Z",
  "devdoc": {
    "methods": {
      "addAdmin(bytes32,address)": {
        "params": {
          "newAdminName": "newAdminAddress"
        },
        "return": "userName of the newly added admin"
      },
      "addStoreFront(bytes32)": {
        "params": {
          "newStoreFrontName": "for the store front to be added"
        },
        "return": "newStoreFrontName of the newly added store front"
      },
      "addStoreOwner(bytes32,address)": {
        "params": {
          "newStoreOwner": "newStoreOwnerAddress"
        },
        "return": "userName of the newly added store owner"
      },
      "addStoreProducts(uint256,bytes32,uint256,uint256)": {
        "params": {
          "storeFrontNumber": "productName quantity unitPrice"
        },
        "return": "storeProductName of the newly added product"
      },
      "getAllStoreFronts()": {
        "return": "allStoreFrontNames"
      },
      "getMyStoreFronts()": {
        "return": "storeFrontNames belonging to the requester"
      },
      "getStoreFrontProducts(uint256)": {
        "params": {
          "storeFrontNumber": "for which products to be retrieved"
        },
        "return": "storeFrontProductNames of all products in the store front"
      },
      "login()": {
        "return": "the name of the person logged in"
      },
      "signup(bytes32)": {
        "params": {
          "name": "of the person signing up"
        },
        "return": "the name of the person signed up"
      },
      "toggleEmergency()": {
        "return": "emergency flag will be returned with the right status"
      },
      "update(bytes32)": {
        "params": {
          "name": "to be updated as"
        },
        "return": "updated name of the user"
      }
    }
  },
  "userdoc": {
    "methods": {
      "addAdmin(bytes32,address)": {
        "notice": "function to set up a new admin         requires new admin name and address are not blank         requester needs to be an existing admin"
      },
      "addStoreFront(bytes32)": {
        "notice": "function to set up a new store front         requires new store front name is not blank         requester needs to be an existing store owner"
      },
      "addStoreOwner(bytes32,address)": {
        "notice": "function to set up a new store owner         requires new store owner name and address are not blank         requester needs to be an existing admin"
      },
      "addStoreProducts(uint256,bytes32,uint256,uint256)": {
        "notice": "function to add a product to a store front         requires new product name is not blank; quantity and unit price >= 0         requester needs to be owner of the store front where the product is being added"
      },
      "getAllStoreFronts()": {
        "notice": "function to retrieve all available store fronts"
      },
      "getMyStoreFronts()": {
        "notice": "function to retrieve store front names of the requester"
      },
      "getStoreFrontProducts(uint256)": {
        "notice": "function to retrieve all products in a store front"
      },
      "login()": {
        "notice": "check is user exists and return user role"
      },
      "signup(bytes32)": {
        "notice": "sign up as online shopper only:         check if user exists, if yes, return user name;         if no, check if name was sent, if yes, create and return user"
      },
      "toggleEmergency()": {
        "notice": "function to set or release an emergency by setting the emergency flag         setting the emergency flag stop key business functions performed by store owners or online onlineShoppers         like adding stores fronts, or making purchases         Only admins can set or release the emergency flag"
      },
      "update(bytes32)": {
        "notice": "function to update user name only         requires new user name is not blank         requester to be an existing user and can only change his/her name"
      }
    }
  }
}